{
  "_format": "hh-sol-artifact-1",
  "contractName": "Insure",
  "sourceName": "contracts/Insure.sol",
  "abi": [
    {
      "inputs": [],
      "stateMutability": "nonpayable",
      "type": "constructor"
    },
    {
      "anonymous": false,
      "inputs": [
        {
          "indexed": true,
          "internalType": "address",
          "name": "previousOwner",
          "type": "address"
        },
        {
          "indexed": true,
          "internalType": "address",
          "name": "newOwner",
          "type": "address"
        }
      ],
      "name": "OwnershipTransferred",
      "type": "event"
    },
    {
      "stateMutability": "payable",
      "type": "fallback"
    },
    {
      "inputs": [
        {
          "internalType": "uint256",
          "name": "",
          "type": "uint256"
        }
      ],
      "name": "NFTInsurance",
      "outputs": [
        {
          "internalType": "bool",
          "name": "isInsured",
          "type": "bool"
        },
        {
          "internalType": "uint256",
          "name": "NFTInsurancyPolicyID",
          "type": "uint256"
        },
        {
          "internalType": "uint256",
          "name": "startDate",
          "type": "uint256"
        },
        {
          "internalType": "uint256",
          "name": "endDay",
          "type": "uint256"
        },
        {
          "internalType": "uint256",
          "name": "insureAmount",
          "type": "uint256"
        },
        {
          "internalType": "int256",
          "name": "capturedFloorPrice",
          "type": "int256"
        },
        {
          "internalType": "string",
          "name": "NFT_Name",
          "type": "string"
        },
        {
          "internalType": "string",
          "name": "NFT_Symbol",
          "type": "string"
        },
        {
          "internalType": "string",
          "name": "NFT_TokenURI",
          "type": "string"
        }
      ],
      "stateMutability": "view",
      "type": "function"
    },
    {
      "inputs": [
        {
          "internalType": "address",
          "name": "_contractAddress",
          "type": "address"
        },
        {
          "internalType": "uint256",
          "name": "_tokenId",
          "type": "uint256"
        }
      ],
      "name": "checkEligibility",
      "outputs": [
        {
          "internalType": "bool",
          "name": "",
          "type": "bool"
        }
      ],
      "stateMutability": "nonpayable",
      "type": "function"
    },
    {
      "inputs": [
        {
          "internalType": "address payable",
          "name": "_to",
          "type": "address"
        },
        {
          "internalType": "uint256",
          "name": "_amount",
          "type": "uint256"
        }
      ],
      "name": "claimPremium",
      "outputs": [],
      "stateMutability": "nonpayable",
      "type": "function"
    },
    {
      "inputs": [],
      "name": "getFloorPrice",
      "outputs": [
        {
          "internalType": "int256",
          "name": "",
          "type": "int256"
        }
      ],
      "stateMutability": "nonpayable",
      "type": "function"
    },
    {
      "inputs": [
        {
          "internalType": "enum Insure.ValidityPeriod",
          "name": "validityPeriod",
          "type": "uint8"
        }
      ],
      "name": "getInsuredAmount",
      "outputs": [
        {
          "internalType": "uint256",
          "name": "",
          "type": "uint256"
        }
      ],
      "stateMutability": "nonpayable",
      "type": "function"
    },
    {
      "inputs": [
        {
          "internalType": "address",
          "name": "",
          "type": "address"
        },
        {
          "internalType": "uint256",
          "name": "",
          "type": "uint256"
        }
      ],
      "name": "getNFTInsuranceDetails",
      "outputs": [
        {
          "internalType": "bool",
          "name": "isInsured",
          "type": "bool"
        },
        {
          "internalType": "uint256",
          "name": "NFTInsurancyPolicyID",
          "type": "uint256"
        },
        {
          "internalType": "uint256",
          "name": "startDate",
          "type": "uint256"
        },
        {
          "internalType": "uint256",
          "name": "endDay",
          "type": "uint256"
        },
        {
          "internalType": "uint256",
          "name": "insureAmount",
          "type": "uint256"
        },
        {
          "internalType": "int256",
          "name": "capturedFloorPrice",
          "type": "int256"
        },
        {
          "internalType": "string",
          "name": "NFT_Name",
          "type": "string"
        },
        {
          "internalType": "string",
          "name": "NFT_Symbol",
          "type": "string"
        },
        {
          "internalType": "string",
          "name": "NFT_TokenURI",
          "type": "string"
        }
      ],
      "stateMutability": "view",
      "type": "function"
    },
    {
      "inputs": [
        {
          "internalType": "address",
          "name": "_contractAddress",
          "type": "address"
        },
        {
          "internalType": "uint256",
          "name": "_tokenId",
          "type": "uint256"
        }
      ],
      "name": "getNFTOwner",
      "outputs": [
        {
          "internalType": "address",
          "name": "",
          "type": "address"
        }
      ],
      "stateMutability": "nonpayable",
      "type": "function"
    },
    {
      "inputs": [],
      "name": "insureAmount_",
      "outputs": [
        {
          "internalType": "uint256",
          "name": "",
          "type": "uint256"
        }
      ],
      "stateMutability": "view",
      "type": "function"
    },
    {
      "inputs": [
        {
          "internalType": "address",
          "name": "_contractAddress",
          "type": "address"
        },
        {
          "internalType": "uint256",
          "name": "_tokenId",
          "type": "uint256"
        },
        {
          "internalType": "enum Insure.ValidityPeriod",
          "name": "validityPeriod",
          "type": "uint8"
        }
      ],
      "name": "insureNFT",
      "outputs": [],
      "stateMutability": "payable",
      "type": "function"
    },
    {
      "inputs": [],
      "name": "numInsurance",
      "outputs": [
        {
          "internalType": "uint256",
          "name": "",
          "type": "uint256"
        }
      ],
      "stateMutability": "view",
      "type": "function"
    },
    {
      "inputs": [],
      "name": "owner",
      "outputs": [
        {
          "internalType": "address",
          "name": "",
          "type": "address"
        }
      ],
      "stateMutability": "view",
      "type": "function"
    },
    {
      "inputs": [],
      "name": "renounceOwnership",
      "outputs": [],
      "stateMutability": "nonpayable",
      "type": "function"
    },
    {
      "inputs": [
        {
          "internalType": "address",
          "name": "newOwner",
          "type": "address"
        }
      ],
      "name": "transferOwnership",
      "outputs": [],
      "stateMutability": "nonpayable",
      "type": "function"
    },
    {
      "stateMutability": "payable",
      "type": "receive"
    }
  ],
  "bytecode": "0x60806040523480156200001157600080fd5b5062000032620000266200008d60201b60201c565b6200009560201b60201c565b73b5ffecac8d239a19836dbecb5262da2b7ca6b78e600360006101000a81548173ffffffffffffffffffffffffffffffffffffffff021916908373ffffffffffffffffffffffffffffffffffffffff1602179055506200015b565b600033905090565b6000600260009054906101000a900473ffffffffffffffffffffffffffffffffffffffff16905081600260006101000a81548173ffffffffffffffffffffffffffffffffffffffff021916908373ffffffffffffffffffffffffffffffffffffffff1602179055508173ffffffffffffffffffffffffffffffffffffffff168173ffffffffffffffffffffffffffffffffffffffff167f8be0079c531659141344cd1fd0a4f28419497f9722a3daafe3b4186f6b6457e060405160405180910390a35050565b6128d3806200016b6000396000f3fe6080604052600436106100c65760003560e01c80638da5cb5b1161007f578063d446658111610059578063d44665811461027a578063e7e961d8146102b7578063ecd9e349146102d3578063f2fde38b14610318576100cd565b80638da5cb5b146101df578063992d21861461020a578063b8bbb48514610235576100cd565b80632a33d6b2146100cf57806349df1feb146100fa578063637dfb0c14610137578063703849d914610174578063715018a61461019f57806377bd35fc146101b6576100cd565b366100cd57005b005b3480156100db57600080fd5b506100e4610341565b6040516100f1919061169c565b60405180910390f35b34801561010657600080fd5b50610121600480360381019061011c919061175f565b610438565b60405161012e91906117ba565b60405180910390f35b34801561014357600080fd5b5061015e6004803603810190610159919061175f565b610851565b60405161016b91906117e4565b60405180910390f35b34801561018057600080fd5b5061018961093c565b604051610196919061180e565b60405180910390f35b3480156101ab57600080fd5b506101b4610942565b005b3480156101c257600080fd5b506101dd60048036038101906101d89190611867565b610956565b005b3480156101eb57600080fd5b506101f4610a8b565b60405161020191906117e4565b60405180910390f35b34801561021657600080fd5b5061021f610ab5565b60405161022c919061180e565b60405180910390f35b34801561024157600080fd5b5061025c600480360381019061025791906118a7565b610abb565b60405161027199989796959493929190611964565b60405180910390f35b34801561028657600080fd5b506102a1600480360381019061029c9190611a2b565b610cae565b6040516102ae919061180e565b60405180910390f35b6102d160048036038101906102cc9190611a58565b610d76565b005b3480156102df57600080fd5b506102fa60048036038101906102f5919061175f565b6110ae565b60405161030f99989796959493929190611964565b60405180910390f35b34801561032457600080fd5b5061033f600480360381019061033a9190611aab565b6112ae565b005b6000732748a42abd328835dfda748bdd1d77ce3c3312ee600160006101000a81548173ffffffffffffffffffffffffffffffffffffffff021916908373ffffffffffffffffffffffffffffffffffffffff1602179055506000600160009054906101000a900473ffffffffffffffffffffffffffffffffffffffff1673ffffffffffffffffffffffffffffffffffffffff1663feaf968c6040518163ffffffff1660e01b815260040160a060405180830381865afa158015610407573d6000803e3d6000fd5b505050506040513d601f19601f8201168201806040525081019061042b9190611b5b565b5050509150508091505090565b60008282816000806101000a81548173ffffffffffffffffffffffffffffffffffffffff021916908373ffffffffffffffffffffffffffffffffffffffff16021790555060008054906101000a900473ffffffffffffffffffffffffffffffffffffffff1673ffffffffffffffffffffffffffffffffffffffff16636352211e826040518263ffffffff1660e01b81526004016104d5919061180e565b602060405180830381865afa1580156104f2573d6000803e3d6000fd5b505050506040513d601f19601f820116820180604052508101906105169190611beb565b73ffffffffffffffffffffffffffffffffffffffff163373ffffffffffffffffffffffffffffffffffffffff161461054f576000610552565b60015b610591576040517f08c379a000000000000000000000000000000000000000000000000000000000815260040161058890611c64565b60405180910390fd5b600061059b610341565b905067016345785d8a00008112156105e8576040517f08c379a00000000000000000000000000000000000000000000000000000000081526004016105df90611cd0565b60405180910390fd5b60011515600560008873ffffffffffffffffffffffffffffffffffffffff1673ffffffffffffffffffffffffffffffffffffffff168152602001908152602001600020600087815260200190815260200160002060000160009054906101000a900460ff1615151480156106af575042600560008873ffffffffffffffffffffffffffffffffffffffff1673ffffffffffffffffffffffffffffffffffffffff16815260200190815260200160002060008781526020019081526020016000206003015411155b156107a3576000600560008873ffffffffffffffffffffffffffffffffffffffff1673ffffffffffffffffffffffffffffffffffffffff168152602001908152602001600020600087815260200190815260200160002060000160006101000a81548160ff021916908315150217905550600060046000600560008a73ffffffffffffffffffffffffffffffffffffffff1673ffffffffffffffffffffffffffffffffffffffff168152602001908152602001600020600089815260200190815260200160002060010154815260200190815260200160002060000160006101000a81548160ff0219169083151502179055505b600560008773ffffffffffffffffffffffffffffffffffffffff1673ffffffffffffffffffffffffffffffffffffffff168152602001908152602001600020600086815260200190815260200160002060000160009054906101000a900460ff1615610844576040517f08c379a000000000000000000000000000000000000000000000000000000000815260040161083b90611d3c565b60405180910390fd5b6001935050505092915050565b6000826000806101000a81548173ffffffffffffffffffffffffffffffffffffffff021916908373ffffffffffffffffffffffffffffffffffffffff16021790555060008060009054906101000a900473ffffffffffffffffffffffffffffffffffffffff1673ffffffffffffffffffffffffffffffffffffffff16636352211e846040518263ffffffff1660e01b81526004016108ef919061180e565b602060405180830381865afa15801561090c573d6000803e3d6000fd5b505050506040513d601f19601f820116820180604052508101906109309190611beb565b90508091505092915050565b60065481565b61094a611331565b61095460006113af565b565b61095e611331565b600073ffffffffffffffffffffffffffffffffffffffff168273ffffffffffffffffffffffffffffffffffffffff161415801561099b5750600081115b6109da576040517f08c379a00000000000000000000000000000000000000000000000000000000081526004016109d190611da8565b60405180910390fd5b60008273ffffffffffffffffffffffffffffffffffffffff1682604051610a0090611df9565b60006040518083038185875af1925050503d8060008114610a3d576040519150601f19603f3d011682016040523d82523d6000602084013e610a42565b606091505b5050905080610a86576040517f08c379a0000000000000000000000000000000000000000000000000000000008152600401610a7d90611e5a565b60405180910390fd5b505050565b6000600260009054906101000a900473ffffffffffffffffffffffffffffffffffffffff16905090565b60075481565b60046020528060005260406000206000915090508060000160009054906101000a900460ff1690806001015490806002015490806003015490806004015490806005015490806006018054610b0f90611ea9565b80601f0160208091040260200160405190810160405280929190818152602001828054610b3b90611ea9565b8015610b885780601f10610b5d57610100808354040283529160200191610b88565b820191906000526020600020905b815481529060010190602001808311610b6b57829003601f168201915b505050505090806007018054610b9d90611ea9565b80601f0160208091040260200160405190810160405280929190818152602001828054610bc990611ea9565b8015610c165780601f10610beb57610100808354040283529160200191610c16565b820191906000526020600020905b815481529060010190602001808311610bf957829003601f168201915b505050505090806008018054610c2b90611ea9565b80601f0160208091040260200160405190810160405280929190818152602001828054610c5790611ea9565b8015610ca45780601f10610c7957610100808354040283529160200191610ca4565b820191906000526020600020905b815481529060010190602001808311610c8757829003601f168201915b5050505050905089565b600080610cb9610341565b90506000806002811115610cd057610ccf611eda565b5b846002811115610ce357610ce2611eda565b5b03610cfc57600a82610cf59190611f67565b9050610d65565b60016002811115610d1057610d0f611eda565b5b846002811115610d2357610d22611eda565b5b03610d4857600a600283610d379190611fd1565b610d419190611f67565b9050610d64565b600a600383610d579190611fd1565b610d619190611f67565b90505b5b806007819055508092505050919050565b6000610d828484610438565b905080610dc4576040517f08c379a0000000000000000000000000000000000000000000000000000000008152600401610dbb90612095565b60405180910390fd5b6000610dcf83611475565b9050600060046000600654815260200190815260200160002090506000610df585610cae565b905080341015610e3a576040517f08c379a0000000000000000000000000000000000000000000000000000000008152600401610e3190612101565b60405180910390fd5b60065482600101819055504282600201819055508242610e5a9190612121565b8260030181905550610e6a610341565b8260050181905550348260040181905550610e84876114f8565b826006019081610e949190612330565b50610e9e87611575565b826007019081610eae9190612330565b50610eb987876115f2565b826008019081610ec99190612330565b5060018260000160006101000a81548160ff02191690831515021790555081600560008973ffffffffffffffffffffffffffffffffffffffff1673ffffffffffffffffffffffffffffffffffffffff16815260200190815260200160002060008881526020019081526020016000206000820160009054906101000a900460ff168160000160006101000a81548160ff021916908315150217905550600182015481600101556002820154816002015560038201548160030155600482015481600401556005820154816005015560068201816006019081610fab9190612418565b5060078201816007019081610fc09190612418565b5060088201816008019081610fd59190612418565b50905050600360009054906101000a900473ffffffffffffffffffffffffffffffffffffffff1673ffffffffffffffffffffffffffffffffffffffff166359cca10f33846001015485600201548660030154876004015488600601896007018a6008016040518963ffffffff1660e01b815260040161105b989796959493929190612584565b600060405180830381600087803b15801561107557600080fd5b505af1158015611089573d6000803e3d6000fd5b50505050600660008154809291906110a090612617565b919050555050505050505050565b6005602052816000526040600020602052806000526040600020600091509150508060000160009054906101000a900460ff169080600101549080600201549080600301549080600401549080600501549080600601805461110f90611ea9565b80601f016020809104026020016040519081016040528092919081815260200182805461113b90611ea9565b80156111885780601f1061115d57610100808354040283529160200191611188565b820191906000526020600020905b81548152906001019060200180831161116b57829003601f168201915b50505050509080600701805461119d90611ea9565b80601f01602080910402602001604051908101604052809291908181526020018280546111c990611ea9565b80156112165780601f106111eb57610100808354040283529160200191611216565b820191906000526020600020905b8154815290600101906020018083116111f957829003601f168201915b50505050509080600801805461122b90611ea9565b80601f016020809104026020016040519081016040528092919081815260200182805461125790611ea9565b80156112a45780601f10611279576101008083540402835291602001916112a4565b820191906000526020600020905b81548152906001019060200180831161128757829003601f168201915b5050505050905089565b6112b6611331565b600073ffffffffffffffffffffffffffffffffffffffff168173ffffffffffffffffffffffffffffffffffffffff1603611325576040517f08c379a000000000000000000000000000000000000000000000000000000000815260040161131c906126d1565b60405180910390fd5b61132e816113af565b50565b61133961167b565b73ffffffffffffffffffffffffffffffffffffffff16611357610a8b565b73ffffffffffffffffffffffffffffffffffffffff16146113ad576040517f08c379a00000000000000000000000000000000000000000000000000000000081526004016113a49061273d565b60405180910390fd5b565b6000600260009054906101000a900473ffffffffffffffffffffffffffffffffffffffff16905081600260006101000a81548173ffffffffffffffffffffffffffffffffffffffff021916908373ffffffffffffffffffffffffffffffffffffffff1602179055508173ffffffffffffffffffffffffffffffffffffffff168173ffffffffffffffffffffffffffffffffffffffff167f8be0079c531659141344cd1fd0a4f28419497f9722a3daafe3b4186f6b6457e060405160405180910390a35050565b6000806000600281111561148c5761148b611eda565b5b83600281111561149f5761149e611eda565b5b036114af5762794a0090506114ef565b600160028111156114c3576114c2611eda565b5b8360028111156114d6576114d5611eda565b5b036114e65762eff10090506114ee565b6301e2850090505b5b80915050919050565b60608173ffffffffffffffffffffffffffffffffffffffff166306fdde036040518163ffffffff1660e01b8152600401600060405180830381865afa158015611545573d6000803e3d6000fd5b505050506040513d6000823e3d601f19601f8201168201806040525081019061156e9190612854565b9050919050565b60608173ffffffffffffffffffffffffffffffffffffffff166395d89b416040518163ffffffff1660e01b8152600401600060405180830381865afa1580156115c2573d6000803e3d6000fd5b505050506040513d6000823e3d601f19601f820116820180604052508101906115eb9190612854565b9050919050565b60608273ffffffffffffffffffffffffffffffffffffffff1663c87b56dd836040518263ffffffff1660e01b815260040161162d919061180e565b600060405180830381865afa15801561164a573d6000803e3d6000fd5b505050506040513d6000823e3d601f19601f820116820180604052508101906116739190612854565b905092915050565b600033905090565b6000819050919050565b61169681611683565b82525050565b60006020820190506116b1600083018461168d565b92915050565b6000604051905090565b600080fd5b600080fd5b600073ffffffffffffffffffffffffffffffffffffffff82169050919050565b60006116f6826116cb565b9050919050565b611706816116eb565b811461171157600080fd5b50565b600081359050611723816116fd565b92915050565b6000819050919050565b61173c81611729565b811461174757600080fd5b50565b60008135905061175981611733565b92915050565b60008060408385031215611776576117756116c1565b5b600061178485828601611714565b92505060206117958582860161174a565b9150509250929050565b60008115159050919050565b6117b48161179f565b82525050565b60006020820190506117cf60008301846117ab565b92915050565b6117de816116eb565b82525050565b60006020820190506117f960008301846117d5565b92915050565b61180881611729565b82525050565b600060208201905061182360008301846117ff565b92915050565b6000611834826116cb565b9050919050565b61184481611829565b811461184f57600080fd5b50565b6000813590506118618161183b565b92915050565b6000806040838503121561187e5761187d6116c1565b5b600061188c85828601611852565b925050602061189d8582860161174a565b9150509250929050565b6000602082840312156118bd576118bc6116c1565b5b60006118cb8482850161174a565b91505092915050565b600081519050919050565b600082825260208201905092915050565b60005b8381101561190e5780820151818401526020810190506118f3565b60008484015250505050565b6000601f19601f8301169050919050565b6000611936826118d4565b61194081856118df565b93506119508185602086016118f0565b6119598161191a565b840191505092915050565b60006101208201905061197a600083018c6117ab565b611987602083018b6117ff565b611994604083018a6117ff565b6119a160608301896117ff565b6119ae60808301886117ff565b6119bb60a083018761168d565b81810360c08301526119cd818661192b565b905081810360e08301526119e1818561192b565b90508181036101008301526119f6818461192b565b90509a9950505050505050505050565b60038110611a1357600080fd5b50565b600081359050611a2581611a06565b92915050565b600060208284031215611a4157611a406116c1565b5b6000611a4f84828501611a16565b91505092915050565b600080600060608486031215611a7157611a706116c1565b5b6000611a7f86828701611714565b9350506020611a908682870161174a565b9250506040611aa186828701611a16565b9150509250925092565b600060208284031215611ac157611ac06116c1565b5b6000611acf84828501611714565b91505092915050565b600069ffffffffffffffffffff82169050919050565b611af781611ad8565b8114611b0257600080fd5b50565b600081519050611b1481611aee565b92915050565b611b2381611683565b8114611b2e57600080fd5b50565b600081519050611b4081611b1a565b92915050565b600081519050611b5581611733565b92915050565b600080600080600060a08688031215611b7757611b766116c1565b5b6000611b8588828901611b05565b9550506020611b9688828901611b31565b9450506040611ba788828901611b46565b9350506060611bb888828901611b46565b9250506080611bc988828901611b05565b9150509295509295909350565b600081519050611be5816116fd565b92915050565b600060208284031215611c0157611c006116c1565b5b6000611c0f84828501611bd6565b91505092915050565b7f4e4f54204e4654204f574e455200000000000000000000000000000000000000600082015250565b6000611c4e600d836118df565b9150611c5982611c18565b602082019050919050565b60006020820190508181036000830152611c7d81611c41565b9050919050565b7f464c4f4f5220505249434520544f4f204c4f5700000000000000000000000000600082015250565b6000611cba6013836118df565b9150611cc582611c84565b602082019050919050565b60006020820190508181036000830152611ce981611cad565b9050919050565b7f414c524541445920494e53555245440000000000000000000000000000000000600082015250565b6000611d26600f836118df565b9150611d3182611cf0565b602082019050919050565b60006020820190508181036000830152611d5581611d19565b9050919050565b7f494e56414c494400000000000000000000000000000000000000000000000000600082015250565b6000611d926007836118df565b9150611d9d82611d5c565b602082019050919050565b60006020820190508181036000830152611dc181611d85565b9050919050565b600081905092915050565b50565b6000611de3600083611dc8565b9150611dee82611dd3565b600082019050919050565b6000611e0482611dd6565b9150819050919050565b7f4641494c45440000000000000000000000000000000000000000000000000000600082015250565b6000611e446006836118df565b9150611e4f82611e0e565b602082019050919050565b60006020820190508181036000830152611e7381611e37565b9050919050565b7f4e487b7100000000000000000000000000000000000000000000000000000000600052602260045260246000fd5b60006002820490506001821680611ec157607f821691505b602082108103611ed457611ed3611e7a565b5b50919050565b7f4e487b7100000000000000000000000000000000000000000000000000000000600052602160045260246000fd5b7f4e487b7100000000000000000000000000000000000000000000000000000000600052601260045260246000fd5b7f4e487b7100000000000000000000000000000000000000000000000000000000600052601160045260246000fd5b6000611f7282611683565b9150611f7d83611683565b925082611f8d57611f8c611f09565b5b600160000383147f800000000000000000000000000000000000000000000000000000000000000083141615611fc657611fc5611f38565b5b828205905092915050565b6000611fdc82611683565b9150611fe783611683565b9250828202611ff581611683565b91507f8000000000000000000000000000000000000000000000000000000000000000841460008412161561202d5761202c611f38565b5b828205841483151761204257612041611f38565b5b5092915050565b7f4e4f5420454c494749424c450000000000000000000000000000000000000000600082015250565b600061207f600c836118df565b915061208a82612049565b602082019050919050565b600060208201905081810360008301526120ae81612072565b9050919050565b7f50415920434f525245435420414d4f554e540000000000000000000000000000600082015250565b60006120eb6012836118df565b91506120f6826120b5565b602082019050919050565b6000602082019050818103600083015261211a816120de565b9050919050565b600061212c82611729565b915061213783611729565b925082820190508082111561214f5761214e611f38565b5b92915050565b7f4e487b7100000000000000000000000000000000000000000000000000000000600052604160045260246000fd5b60008190508160005260206000209050919050565b60006020601f8301049050919050565b600082821b905092915050565b6000600883026121e67fffffffffffffffffffffffffffffffffffffffffffffffffffffffffffffffff826121a9565b6121f086836121a9565b95508019841693508086168417925050509392505050565b6000819050919050565b600061222d61222861222384611729565b612208565b611729565b9050919050565b6000819050919050565b61224783612212565b61225b61225382612234565b8484546121b6565b825550505050565b600090565b612270612263565b61227b81848461223e565b505050565b5b8181101561229f57612294600082612268565b600181019050612281565b5050565b601f8211156122e4576122b581612184565b6122be84612199565b810160208510156122cd578190505b6122e16122d985612199565b830182612280565b50505b505050565b600082821c905092915050565b6000612307600019846008026122e9565b1980831691505092915050565b600061232083836122f6565b9150826002028217905092915050565b612339826118d4565b67ffffffffffffffff81111561235257612351612155565b5b61235c8254611ea9565b6123678282856122a3565b600060209050601f83116001811461239a5760008415612388578287015190505b6123928582612314565b8655506123fa565b601f1984166123a886612184565b60005b828110156123d0578489015182556001820191506020850194506020810190506123ab565b868310156123ed57848901516123e9601f8916826122f6565b8355505b6001600288020188555050505b505050505050565b60008154905061241181611ea9565b9050919050565b8181036124265750506124fe565b61242f82612402565b67ffffffffffffffff81111561244857612447612155565b5b6124528254611ea9565b61245d8282856122a3565b6000601f83116001811461248c576000841561247a578287015490505b6124848582612314565b8655506124f7565b601f19841661249a87612184565b96506124a586612184565b60005b828110156124cd578489015482556001820191506001850194506020810190506124a8565b868310156124ea57848901546124e6601f8916826122f6565b8355505b6001600288020188555050505b5050505050505b565b6000815461250d81611ea9565b61251781866118df565b9450600182166000811461253257600181146125485761257b565b60ff19831686528115156020028601935061257b565b61255185612184565b60005b8381101561257357815481890152600182019150602081019050612554565b808801955050505b50505092915050565b60006101008201905061259a600083018b6117d5565b6125a7602083018a6117ff565b6125b460408301896117ff565b6125c160608301886117ff565b6125ce60808301876117ff565b81810360a08301526125e08186612500565b905081810360c08301526125f48185612500565b905081810360e08301526126088184612500565b90509998505050505050505050565b600061262282611729565b91507fffffffffffffffffffffffffffffffffffffffffffffffffffffffffffffffff820361265457612653611f38565b5b600182019050919050565b7f4f776e61626c653a206e6577206f776e657220697320746865207a65726f206160008201527f6464726573730000000000000000000000000000000000000000000000000000602082015250565b60006126bb6026836118df565b91506126c68261265f565b604082019050919050565b600060208201905081810360008301526126ea816126ae565b9050919050565b7f4f776e61626c653a2063616c6c6572206973206e6f7420746865206f776e6572600082015250565b60006127276020836118df565b9150612732826126f1565b602082019050919050565b600060208201905081810360008301526127568161271a565b9050919050565b600080fd5b600080fd5b6127708261191a565b810181811067ffffffffffffffff8211171561278f5761278e612155565b5b80604052505050565b60006127a26116b7565b90506127ae8282612767565b919050565b600067ffffffffffffffff8211156127ce576127cd612155565b5b6127d78261191a565b9050602081019050919050565b60006127f76127f2846127b3565b612798565b90508281526020810184848401111561281357612812612762565b5b61281e8482856118f0565b509392505050565b600082601f83011261283b5761283a61275d565b5b815161284b8482602086016127e4565b91505092915050565b60006020828403121561286a576128696116c1565b5b600082015167ffffffffffffffff811115612888576128876116c6565b5b61289484828501612826565b9150509291505056fea26469706673582212206e5990f641f3426becaa8c8e12b82cbeecbe934b87220b80abc84cdcf89a984264736f6c63430008110033",
  "linkReferences": {},
  "deployedLinkReferences": {}
}