{
  "_format": "hh-sol-artifact-1",
  "contractName": "helper",
  "sourceName": "contracts/helper.sol",
  "abi": [
    {
      "inputs": [],
      "name": "getFloorPrice",
      "outputs": [
        {
          "internalType": "int256",
          "name": "",
          "type": "int256"
        }
      ],
      "stateMutability": "nonpayable",
      "type": "function"
    },
    {
      "inputs": [
        {
          "internalType": "address",
          "name": "_contractAddress",
          "type": "address"
        },
        {
          "internalType": "uint256",
          "name": "_tokenId",
          "type": "uint256"
        }
      ],
      "name": "getNFTOwner",
      "outputs": [
        {
          "internalType": "address",
          "name": "",
          "type": "address"
        }
      ],
      "stateMutability": "nonpayable",
      "type": "function"
    }
  ],
  "bytecode": "0x608060405234801561001057600080fd5b50610542806100206000396000f3fe608060405234801561001057600080fd5b50600436106100365760003560e01c80632a33d6b21461003b578063637dfb0c14610059575b600080fd5b610043610089565b6040516100509190610284565b60405180910390f35b610073600480360381019061006e9190610338565b610180565b6040516100809190610387565b60405180910390f35b6000732748a42abd328835dfda748bdd1d77ce3c3312ee600160006101000a81548173ffffffffffffffffffffffffffffffffffffffff021916908373ffffffffffffffffffffffffffffffffffffffff1602179055506000600160009054906101000a900473ffffffffffffffffffffffffffffffffffffffff1673ffffffffffffffffffffffffffffffffffffffff1663feaf968c6040518163ffffffff1660e01b815260040160a060405180830381865afa15801561014f573d6000803e3d6000fd5b505050506040513d601f19601f820116820180604052508101906101739190610425565b5050509150508091505090565b6000826000806101000a81548173ffffffffffffffffffffffffffffffffffffffff021916908373ffffffffffffffffffffffffffffffffffffffff16021790555060008060009054906101000a900473ffffffffffffffffffffffffffffffffffffffff1673ffffffffffffffffffffffffffffffffffffffff16636352211e846040518263ffffffff1660e01b815260040161021e91906104af565b602060405180830381865afa15801561023b573d6000803e3d6000fd5b505050506040513d601f19601f8201168201806040525081019061025f91906104df565b90508091505092915050565b6000819050919050565b61027e8161026b565b82525050565b60006020820190506102996000830184610275565b92915050565b600080fd5b600073ffffffffffffffffffffffffffffffffffffffff82169050919050565b60006102cf826102a4565b9050919050565b6102df816102c4565b81146102ea57600080fd5b50565b6000813590506102fc816102d6565b92915050565b6000819050919050565b61031581610302565b811461032057600080fd5b50565b6000813590506103328161030c565b92915050565b6000806040838503121561034f5761034e61029f565b5b600061035d858286016102ed565b925050602061036e85828601610323565b9150509250929050565b610381816102c4565b82525050565b600060208201905061039c6000830184610378565b92915050565b600069ffffffffffffffffffff82169050919050565b6103c1816103a2565b81146103cc57600080fd5b50565b6000815190506103de816103b8565b92915050565b6103ed8161026b565b81146103f857600080fd5b50565b60008151905061040a816103e4565b92915050565b60008151905061041f8161030c565b92915050565b600080600080600060a086880312156104415761044061029f565b5b600061044f888289016103cf565b9550506020610460888289016103fb565b945050604061047188828901610410565b935050606061048288828901610410565b9250506080610493888289016103cf565b9150509295509295909350565b6104a981610302565b82525050565b60006020820190506104c460008301846104a0565b92915050565b6000815190506104d9816102d6565b92915050565b6000602082840312156104f5576104f461029f565b5b6000610503848285016104ca565b9150509291505056fea2646970667358221220d8f89b532148429dbd32af611a3888f0d1c8d1ff5a5582021f7e5bf599016b9e64736f6c63430008110033",
  "linkReferences": {},
  "deployedLinkReferences": {}
}