{
  "_format": "hh-sol-artifact-1",
  "contractName": "EthPriceInsurance",
  "sourceName": "contracts/ETHPriceInsurance.sol",
  "abi": [
    {
      "inputs": [],
      "stateMutability": "nonpayable",
      "type": "constructor"
    },
    {
      "anonymous": false,
      "inputs": [
        {
          "indexed": true,
          "internalType": "address",
          "name": "previousOwner",
          "type": "address"
        },
        {
          "indexed": true,
          "internalType": "address",
          "name": "newOwner",
          "type": "address"
        }
      ],
      "name": "OwnershipTransferred",
      "type": "event"
    },
    {
      "stateMutability": "payable",
      "type": "fallback"
    },
    {
      "inputs": [],
      "name": "checkEthPrice",
      "outputs": [
        {
          "internalType": "uint256",
          "name": "",
          "type": "uint256"
        }
      ],
      "stateMutability": "nonpayable",
      "type": "function"
    },
    {
      "inputs": [],
      "name": "claimSettlement",
      "outputs": [],
      "stateMutability": "nonpayable",
      "type": "function"
    },
    {
      "inputs": [],
      "name": "contractBalance",
      "outputs": [
        {
          "internalType": "uint256",
          "name": "",
          "type": "uint256"
        }
      ],
      "stateMutability": "view",
      "type": "function"
    },
    {
      "inputs": [
        {
          "internalType": "uint256",
          "name": "_price",
          "type": "uint256"
        },
        {
          "internalType": "uint256",
          "name": "_timeDuration",
          "type": "uint256"
        },
        {
          "internalType": "uint256",
          "name": "_porfolioValue",
          "type": "uint256"
        }
      ],
      "name": "createPolicyAgreement",
      "outputs": [],
      "stateMutability": "payable",
      "type": "function"
    },
    {
      "inputs": [],
      "name": "ethPrice",
      "outputs": [
        {
          "internalType": "uint256",
          "name": "",
          "type": "uint256"
        }
      ],
      "stateMutability": "view",
      "type": "function"
    },
    {
      "inputs": [],
      "name": "getEthPrice",
      "outputs": [
        {
          "internalType": "uint256",
          "name": "",
          "type": "uint256"
        }
      ],
      "stateMutability": "view",
      "type": "function"
    },
    {
      "inputs": [],
      "name": "noOfHolders",
      "outputs": [
        {
          "internalType": "uint256",
          "name": "",
          "type": "uint256"
        }
      ],
      "stateMutability": "view",
      "type": "function"
    },
    {
      "inputs": [],
      "name": "owner",
      "outputs": [
        {
          "internalType": "address",
          "name": "",
          "type": "address"
        }
      ],
      "stateMutability": "view",
      "type": "function"
    },
    {
      "inputs": [
        {
          "internalType": "address",
          "name": "",
          "type": "address"
        }
      ],
      "name": "policyHolders",
      "outputs": [
        {
          "internalType": "uint256",
          "name": "insuredPrice",
          "type": "uint256"
        },
        {
          "internalType": "uint256",
          "name": "premiumPaid",
          "type": "uint256"
        },
        {
          "internalType": "uint256",
          "name": "timeDuration",
          "type": "uint256"
        },
        {
          "internalType": "uint256",
          "name": "portfolioValue",
          "type": "uint256"
        },
        {
          "internalType": "bool",
          "name": "hasPolicy",
          "type": "bool"
        }
      ],
      "stateMutability": "view",
      "type": "function"
    },
    {
      "inputs": [],
      "name": "renounceOwnership",
      "outputs": [],
      "stateMutability": "nonpayable",
      "type": "function"
    },
    {
      "inputs": [],
      "name": "tokenIds",
      "outputs": [
        {
          "internalType": "uint256",
          "name": "",
          "type": "uint256"
        }
      ],
      "stateMutability": "view",
      "type": "function"
    },
    {
      "inputs": [
        {
          "internalType": "address",
          "name": "newOwner",
          "type": "address"
        }
      ],
      "name": "transferOwnership",
      "outputs": [],
      "stateMutability": "nonpayable",
      "type": "function"
    },
    {
      "stateMutability": "payable",
      "type": "receive"
    }
  ],
  "bytecode": "0x608060405234801561001057600080fd5b5061002d6100226100e360201b60201c565b6100eb60201b60201c565b6001808190555073d4a33860578de61dbabdc8bfdb98fd742fa7028e600660006101000a81548173ffffffffffffffffffffffffffffffffffffffff021916908373ffffffffffffffffffffffffffffffffffffffff16021790555073b5ffecac8d239a19836dbecb5262da2b7ca6b78e600560006101000a81548173ffffffffffffffffffffffffffffffffffffffff021916908373ffffffffffffffffffffffffffffffffffffffff1602179055506101af565b600033905090565b60008060009054906101000a900473ffffffffffffffffffffffffffffffffffffffff169050816000806101000a81548173ffffffffffffffffffffffffffffffffffffffff021916908373ffffffffffffffffffffffffffffffffffffffff1602179055508173ffffffffffffffffffffffffffffffffffffffff168173ffffffffffffffffffffffffffffffffffffffff167f8be0079c531659141344cd1fd0a4f28419497f9722a3daafe3b4186f6b6457e060405160405180910390a35050565b6117a6806101be6000396000f3fe6080604052600436106100ab5760003560e01c80638da5cb5b116100645780638da5cb5b146101b8578063a99c25e1146101e3578063b190f7591461020e578063c43c36db1461022a578063f2fde38b14610241578063ff186b2e1461026a576100b2565b80633bcc702d146100b457806367c9b017146100df57806370b68a2a1461010a578063714cff561461014b578063715018a6146101765780638b7afe2e1461018d576100b2565b366100b257005b005b3480156100c057600080fd5b506100c9610295565b6040516100d69190610d98565b60405180910390f35b3480156100eb57600080fd5b506100f46102ad565b6040516101019190610d98565b60405180910390f35b34801561011657600080fd5b50610131600480360381019061012c9190610e16565b61035e565b604051610142959493929190610e5e565b60405180910390f35b34801561015757600080fd5b506101606103a1565b60405161016d9190610d98565b60405180910390f35b34801561018257600080fd5b5061018b6103a7565b005b34801561019957600080fd5b506101a26103bb565b6040516101af9190610d98565b60405180910390f35b3480156101c457600080fd5b506101cd6103ee565b6040516101da9190610ec0565b60405180910390f35b3480156101ef57600080fd5b506101f8610417565b6040516102059190610d98565b60405180910390f35b61022860048036038101906102239190610f07565b61041d565b005b34801561023657600080fd5b5061023f610905565b005b34801561024d57600080fd5b5061026860048036038101906102639190610e16565b610b26565b005b34801561027657600080fd5b5061027f610ba9565b60405161028c9190610d98565b60405180910390f35b600061029f6102ad565b600481905550600454905090565b600080600660009054906101000a900473ffffffffffffffffffffffffffffffffffffffff1673ffffffffffffffffffffffffffffffffffffffff1663feaf968c6040518163ffffffff1660e01b815260040160a060405180830381865afa15801561031d573d6000803e3d6000fd5b505050506040513d601f19601f820116820180604052508101906103419190610fe7565b5050509150506402540be400816103589190611091565b91505090565b60076020528060005260406000206000915090508060000154908060010154908060020154908060030154908060040160009054906101000a900460ff16905085565b60025481565b6103af610baf565b6103b96000610c2d565b565b60006103c5610baf565b600030905060008173ffffffffffffffffffffffffffffffffffffffff16319050809250505090565b60008060009054906101000a900473ffffffffffffffffffffffffffffffffffffffff16905090565b60035481565b600860003373ffffffffffffffffffffffffffffffffffffffff1673ffffffffffffffffffffffffffffffffffffffff16815260200190815260200160002060009054906101000a900460ff16156104aa576040517f08c379a00000000000000000000000000000000000000000000000000000000081526004016104a190611166565b60405180910390fd5b600083116104ed576040517f08c379a00000000000000000000000000000000000000000000000000000000081526004016104e4906111d2565b60405180910390fd5b6000670de0b6b3a76400008461050391906111f2565b9050601e831015610549576040517f08c379a0000000000000000000000000000000000000000000000000000000008152600401610540906112a6565b60405180910390fd5b6000821161058c576040517f08c379a000000000000000000000000000000000000000000000000000000000815260040161058390611312565b60405180910390fd5b806105956102ad565b116105d5576040517f08c379a00000000000000000000000000000000000000000000000000000000081526004016105cc9061137e565b60405180910390fd5b80600760003373ffffffffffffffffffffffffffffffffffffffff1673ffffffffffffffffffffffffffffffffffffffff1681526020019081526020016000206000018190555082600760003373ffffffffffffffffffffffffffffffffffffffff1673ffffffffffffffffffffffffffffffffffffffff1681526020019081526020016000206002018190555081600760003373ffffffffffffffffffffffffffffffffffffffff1673ffffffffffffffffffffffffffffffffffffffff168152602001908152602001600020600301819055506001600760003373ffffffffffffffffffffffffffffffffffffffff1673ffffffffffffffffffffffffffffffffffffffff16815260200190815260200160002060040160006101000a81548160ff021916908315150217905550600360008154809291906107189061139e565b9190505550600061072883610cf1565b90508034101561076d576040517f08c379a000000000000000000000000000000000000000000000000000000000815260040161076490611432565b60405180910390fd5b60003090508073ffffffffffffffffffffffffffffffffffffffff166108fc839081150290604051600060405180830381858888f193505050501580156107b8573d6000803e3d6000fd5b5081600760003373ffffffffffffffffffffffffffffffffffffffff1673ffffffffffffffffffffffffffffffffffffffff168152602001908152602001600020600101600082825461080b9190611452565b925050819055506001600860003373ffffffffffffffffffffffffffffffffffffffff1673ffffffffffffffffffffffffffffffffffffffff16815260200190815260200160002060006101000a81548160ff021916908315150217905550600560009054906101000a900473ffffffffffffffffffffffffffffffffffffffff1673ffffffffffffffffffffffffffffffffffffffff1663bcee96af338888886040518563ffffffff1660e01b81526004016108cb9493929190611486565b600060405180830381600087803b1580156108e557600080fd5b505af11580156108f9573d6000803e3d6000fd5b50505050505050505050565b61090d610d1f565b60011515600860003373ffffffffffffffffffffffffffffffffffffffff1673ffffffffffffffffffffffffffffffffffffffff16815260200190815260200160002060009054906101000a900460ff161515146109a0576040517f08c379a000000000000000000000000000000000000000000000000000000000815260040161099790611517565b60405180910390fd5b600454600760003373ffffffffffffffffffffffffffffffffffffffff1673ffffffffffffffffffffffffffffffffffffffff16815260200190815260200160002060000154116109f057600080fd5b601e600760003373ffffffffffffffffffffffffffffffffffffffff1673ffffffffffffffffffffffffffffffffffffffff1681526020019081526020016000206002015411610a75576040517f08c379a0000000000000000000000000000000000000000000000000000000008152600401610a6c9061155d565b60405180910390fd5b6000600760003373ffffffffffffffffffffffffffffffffffffffff1673ffffffffffffffffffffffffffffffffffffffff1681526020019081526020016000206001015490503373ffffffffffffffffffffffffffffffffffffffff166108fc829081150290604051600060405180830381858888f19350505050158015610b02573d6000803e3d6000fd5b5060036000815480929190610b169061157d565b919050555050610b24610d6e565b565b610b2e610baf565b600073ffffffffffffffffffffffffffffffffffffffff168173ffffffffffffffffffffffffffffffffffffffff1603610b9d576040517f08c379a0000000000000000000000000000000000000000000000000000000008152600401610b9490611618565b60405180910390fd5b610ba681610c2d565b50565b60045481565b610bb7610d77565b73ffffffffffffffffffffffffffffffffffffffff16610bd56103ee565b73ffffffffffffffffffffffffffffffffffffffff1614610c2b576040517f08c379a0000000000000000000000000000000000000000000000000000000008152600401610c2290611684565b60405180910390fd5b565b60008060009054906101000a900473ffffffffffffffffffffffffffffffffffffffff169050816000806101000a81548173ffffffffffffffffffffffffffffffffffffffff021916908373ffffffffffffffffffffffffffffffffffffffff1602179055508173ffffffffffffffffffffffffffffffffffffffff168173ffffffffffffffffffffffffffffffffffffffff167f8be0079c531659141344cd1fd0a4f28419497f9722a3daafe3b4186f6b6457e060405160405180910390a35050565b600080670de0b6b3a7640000600384610d0a91906116d3565b610d1491906111f2565b905080915050919050565b600260015403610d64576040517f08c379a0000000000000000000000000000000000000000000000000000000008152600401610d5b90611750565b60405180910390fd5b6002600181905550565b60018081905550565b600033905090565b6000819050919050565b610d9281610d7f565b82525050565b6000602082019050610dad6000830184610d89565b92915050565b600080fd5b600073ffffffffffffffffffffffffffffffffffffffff82169050919050565b6000610de382610db8565b9050919050565b610df381610dd8565b8114610dfe57600080fd5b50565b600081359050610e1081610dea565b92915050565b600060208284031215610e2c57610e2b610db3565b5b6000610e3a84828501610e01565b91505092915050565b60008115159050919050565b610e5881610e43565b82525050565b600060a082019050610e736000830188610d89565b610e806020830187610d89565b610e8d6040830186610d89565b610e9a6060830185610d89565b610ea76080830184610e4f565b9695505050505050565b610eba81610dd8565b82525050565b6000602082019050610ed56000830184610eb1565b92915050565b610ee481610d7f565b8114610eef57600080fd5b50565b600081359050610f0181610edb565b92915050565b600080600060608486031215610f2057610f1f610db3565b5b6000610f2e86828701610ef2565b9350506020610f3f86828701610ef2565b9250506040610f5086828701610ef2565b9150509250925092565b600069ffffffffffffffffffff82169050919050565b610f7981610f5a565b8114610f8457600080fd5b50565b600081519050610f9681610f70565b92915050565b6000819050919050565b610faf81610f9c565b8114610fba57600080fd5b50565b600081519050610fcc81610fa6565b92915050565b600081519050610fe181610edb565b92915050565b600080600080600060a0868803121561100357611002610db3565b5b600061101188828901610f87565b955050602061102288828901610fbd565b945050604061103388828901610fd2565b935050606061104488828901610fd2565b925050608061105588828901610f87565b9150509295509295909350565b7f4e487b7100000000000000000000000000000000000000000000000000000000600052601160045260246000fd5b600061109c82610f9c565b91506110a783610f9c565b92508282026110b581610f9c565b91507f800000000000000000000000000000000000000000000000000000000000000084146000841216156110ed576110ec611062565b5b828205841483151761110257611101611062565b5b5092915050565b600082825260208201905092915050565b7f596f7520686176652074686520706f6c69637920616c72656164792100000000600082015250565b6000611150601c83611109565b915061115b8261111a565b602082019050919050565b6000602082019050818103600083015261117f81611143565b9050919050565b7f496e76616c696420507269636521000000000000000000000000000000000000600082015250565b60006111bc600e83611109565b91506111c782611186565b602082019050919050565b600060208201905081810360008301526111eb816111af565b9050919050565b60006111fd82610d7f565b915061120883610d7f565b925082820261121681610d7f565b9150828204841483151761122d5761122c611062565b5b5092915050565b7f4475726174696f6e206d757374206265206d6f7265207468616e20333044617960008201527f7321000000000000000000000000000000000000000000000000000000000000602082015250565b6000611290602283611109565b915061129b82611234565b604082019050919050565b600060208201905081810360008301526112bf81611283565b9050919050565b7f506f7274666f6c696f20697320746f6f20736d616c6c00000000000000000000600082015250565b60006112fc601683611109565b9150611307826112c6565b602082019050919050565b6000602082019050818103600083015261132b816112ef565b9050919050565b7f50726963652069736e27742076616c6964000000000000000000000000000000600082015250565b6000611368601183611109565b915061137382611332565b602082019050919050565b600060208201905081810360008301526113978161135b565b9050919050565b60006113a982610d7f565b91507fffffffffffffffffffffffffffffffffffffffffffffffffffffffffffffffff82036113db576113da611062565b5b600182019050919050565b7f5072656d69756d2056616c75652069736e27742076616c696400000000000000600082015250565b600061141c601983611109565b9150611427826113e6565b602082019050919050565b6000602082019050818103600083015261144b8161140f565b9050919050565b600061145d82610d7f565b915061146883610d7f565b92508282019050808211156114805761147f611062565b5b92915050565b600060808201905061149b6000830187610eb1565b6114a86020830186610d89565b6114b56040830185610d89565b6114c26060830184610d89565b95945050505050565b7f596f75277265206e6f7420656e7469746c656420746f20746869732100000000600082015250565b6000611501601c83611109565b915061150c826114cb565b602082019050919050565b60006020820190508181036000830152611530816114f4565b9050919050565b50565b6000611547600083611109565b915061155282611537565b600082019050919050565b600060208201905081810360008301526115768161153a565b9050919050565b600061158882610d7f565b91506000820361159b5761159a611062565b5b600182039050919050565b7f4f776e61626c653a206e6577206f776e657220697320746865207a65726f206160008201527f6464726573730000000000000000000000000000000000000000000000000000602082015250565b6000611602602683611109565b915061160d826115a6565b604082019050919050565b60006020820190508181036000830152611631816115f5565b9050919050565b7f4f776e61626c653a2063616c6c6572206973206e6f7420746865206f776e6572600082015250565b600061166e602083611109565b915061167982611638565b602082019050919050565b6000602082019050818103600083015261169d81611661565b9050919050565b7f4e487b7100000000000000000000000000000000000000000000000000000000600052601260045260246000fd5b60006116de82610d7f565b91506116e983610d7f565b9250826116f9576116f86116a4565b5b828204905092915050565b7f5265656e7472616e637947756172643a207265656e7472616e742063616c6c00600082015250565b600061173a601f83611109565b915061174582611704565b602082019050919050565b600060208201905081810360008301526117698161172d565b905091905056fea2646970667358221220f09717706e86d3306961cc31fd9bdc5ef6bd93ef1a7a65f11db4e4da33f46e5164736f6c63430008110033",
  "linkReferences": {},
  "deployedLinkReferences": {}
}