{
  "_format": "hh-sol-artifact-1",
  "contractName": "Insure",
  "sourceName": "contracts/NFTInsureTest.sol",
  "abi": [
    {
      "inputs": [],
      "stateMutability": "nonpayable",
      "type": "constructor"
    },
    {
      "anonymous": false,
      "inputs": [
        {
          "indexed": true,
          "internalType": "address",
          "name": "previousOwner",
          "type": "address"
        },
        {
          "indexed": true,
          "internalType": "address",
          "name": "newOwner",
          "type": "address"
        }
      ],
      "name": "OwnershipTransferred",
      "type": "event"
    },
    {
      "stateMutability": "payable",
      "type": "fallback"
    },
    {
      "inputs": [
        {
          "internalType": "uint256",
          "name": "",
          "type": "uint256"
        }
      ],
      "name": "NFTInsurance",
      "outputs": [
        {
          "internalType": "bool",
          "name": "isInsured",
          "type": "bool"
        },
        {
          "internalType": "uint256",
          "name": "NFTInsurancyPolicyID",
          "type": "uint256"
        },
        {
          "internalType": "uint256",
          "name": "startDate",
          "type": "uint256"
        },
        {
          "internalType": "uint256",
          "name": "endDay",
          "type": "uint256"
        },
        {
          "internalType": "uint256",
          "name": "insureAmount",
          "type": "uint256"
        },
        {
          "internalType": "int256",
          "name": "capturedFloorPrice",
          "type": "int256"
        },
        {
          "internalType": "string",
          "name": "NFT_Name",
          "type": "string"
        },
        {
          "internalType": "string",
          "name": "NFT_Symbol",
          "type": "string"
        },
        {
          "internalType": "string",
          "name": "NFT_TokenURI",
          "type": "string"
        }
      ],
      "stateMutability": "view",
      "type": "function"
    },
    {
      "inputs": [
        {
          "internalType": "address",
          "name": "_contractAddress",
          "type": "address"
        },
        {
          "internalType": "uint256",
          "name": "_tokenId",
          "type": "uint256"
        }
      ],
      "name": "checkEligibility",
      "outputs": [
        {
          "internalType": "bool",
          "name": "",
          "type": "bool"
        }
      ],
      "stateMutability": "nonpayable",
      "type": "function"
    },
    {
      "inputs": [
        {
          "internalType": "address payable",
          "name": "_to",
          "type": "address"
        },
        {
          "internalType": "uint256",
          "name": "_amount",
          "type": "uint256"
        }
      ],
      "name": "claimPremium",
      "outputs": [],
      "stateMutability": "nonpayable",
      "type": "function"
    },
    {
      "inputs": [],
      "name": "getFloorPrice",
      "outputs": [
        {
          "internalType": "int256",
          "name": "",
          "type": "int256"
        }
      ],
      "stateMutability": "nonpayable",
      "type": "function"
    },
    {
      "inputs": [
        {
          "internalType": "enum Insure.ValidityPeriod",
          "name": "validityPeriod",
          "type": "uint8"
        }
      ],
      "name": "getInsuredAmount",
      "outputs": [
        {
          "internalType": "uint256",
          "name": "",
          "type": "uint256"
        }
      ],
      "stateMutability": "nonpayable",
      "type": "function"
    },
    {
      "inputs": [
        {
          "internalType": "address",
          "name": "",
          "type": "address"
        },
        {
          "internalType": "uint256",
          "name": "",
          "type": "uint256"
        }
      ],
      "name": "getNFTInsuranceDetails",
      "outputs": [
        {
          "internalType": "bool",
          "name": "isInsured",
          "type": "bool"
        },
        {
          "internalType": "uint256",
          "name": "NFTInsurancyPolicyID",
          "type": "uint256"
        },
        {
          "internalType": "uint256",
          "name": "startDate",
          "type": "uint256"
        },
        {
          "internalType": "uint256",
          "name": "endDay",
          "type": "uint256"
        },
        {
          "internalType": "uint256",
          "name": "insureAmount",
          "type": "uint256"
        },
        {
          "internalType": "int256",
          "name": "capturedFloorPrice",
          "type": "int256"
        },
        {
          "internalType": "string",
          "name": "NFT_Name",
          "type": "string"
        },
        {
          "internalType": "string",
          "name": "NFT_Symbol",
          "type": "string"
        },
        {
          "internalType": "string",
          "name": "NFT_TokenURI",
          "type": "string"
        }
      ],
      "stateMutability": "view",
      "type": "function"
    },
    {
      "inputs": [
        {
          "internalType": "address",
          "name": "_contractAddress",
          "type": "address"
        },
        {
          "internalType": "uint256",
          "name": "_tokenId",
          "type": "uint256"
        }
      ],
      "name": "getNFTOwner",
      "outputs": [
        {
          "internalType": "address",
          "name": "",
          "type": "address"
        }
      ],
      "stateMutability": "nonpayable",
      "type": "function"
    },
    {
      "inputs": [],
      "name": "insureAmount_",
      "outputs": [
        {
          "internalType": "uint256",
          "name": "",
          "type": "uint256"
        }
      ],
      "stateMutability": "view",
      "type": "function"
    },
    {
      "inputs": [
        {
          "internalType": "address",
          "name": "_contractAddress",
          "type": "address"
        },
        {
          "internalType": "uint256",
          "name": "_tokenId",
          "type": "uint256"
        },
        {
          "internalType": "enum Insure.ValidityPeriod",
          "name": "validityPeriod",
          "type": "uint8"
        }
      ],
      "name": "insureNFT",
      "outputs": [],
      "stateMutability": "payable",
      "type": "function"
    },
    {
      "inputs": [],
      "name": "numInsurance",
      "outputs": [
        {
          "internalType": "uint256",
          "name": "",
          "type": "uint256"
        }
      ],
      "stateMutability": "view",
      "type": "function"
    },
    {
      "inputs": [],
      "name": "owner",
      "outputs": [
        {
          "internalType": "address",
          "name": "",
          "type": "address"
        }
      ],
      "stateMutability": "view",
      "type": "function"
    },
    {
      "inputs": [],
      "name": "renounceOwnership",
      "outputs": [],
      "stateMutability": "nonpayable",
      "type": "function"
    },
    {
      "inputs": [
        {
          "internalType": "address",
          "name": "_contractAddress",
          "type": "address"
        },
        {
          "internalType": "uint256",
          "name": "_tokenId",
          "type": "uint256"
        }
      ],
      "name": "stopInsure",
      "outputs": [],
      "stateMutability": "nonpayable",
      "type": "function"
    },
    {
      "inputs": [
        {
          "internalType": "address",
          "name": "newOwner",
          "type": "address"
        }
      ],
      "name": "transferOwnership",
      "outputs": [],
      "stateMutability": "nonpayable",
      "type": "function"
    },
    {
      "stateMutability": "payable",
      "type": "receive"
    }
  ],
  "bytecode": "0x60806040523480156200001157600080fd5b5062000032620000266200008d60201b60201c565b6200009560201b60201c565b73b5ffecac8d239a19836dbecb5262da2b7ca6b78e600360006101000a81548173ffffffffffffffffffffffffffffffffffffffff021916908373ffffffffffffffffffffffffffffffffffffffff1602179055506200015b565b600033905090565b6000600260009054906101000a900473ffffffffffffffffffffffffffffffffffffffff16905081600260006101000a81548173ffffffffffffffffffffffffffffffffffffffff021916908373ffffffffffffffffffffffffffffffffffffffff1602179055508173ffffffffffffffffffffffffffffffffffffffff168173ffffffffffffffffffffffffffffffffffffffff167f8be0079c531659141344cd1fd0a4f28419497f9722a3daafe3b4186f6b6457e060405160405180910390a35050565b612a62806200016b6000396000f3fe6080604052600436106100e15760003560e01c8063992d21861161007f578063d446658111610059578063d4466581146102be578063e7e961d8146102fb578063ecd9e34914610317578063f2fde38b1461035c576100e8565b8063992d218614610225578063b8bbb48514610250578063bca33c1114610295576100e8565b8063703849d9116100bb578063703849d91461018f578063715018a6146101ba57806377bd35fc146101d15780638da5cb5b146101fa576100e8565b80632a33d6b2146100ea57806349df1feb14610115578063637dfb0c14610152576100e8565b366100e857005b005b3480156100f657600080fd5b506100ff610385565b60405161010c919061182b565b60405180910390f35b34801561012157600080fd5b5061013c600480360381019061013791906118ee565b61047c565b6040516101499190611949565b60405180910390f35b34801561015e57600080fd5b50610179600480360381019061017491906118ee565b610895565b6040516101869190611973565b60405180910390f35b34801561019b57600080fd5b506101a4610980565b6040516101b1919061199d565b60405180910390f35b3480156101c657600080fd5b506101cf610986565b005b3480156101dd57600080fd5b506101f860048036038101906101f391906119f6565b61099a565b005b34801561020657600080fd5b5061020f610acf565b60405161021c9190611973565b60405180910390f35b34801561023157600080fd5b5061023a610af9565b604051610247919061199d565b60405180910390f35b34801561025c57600080fd5b5061027760048036038101906102729190611a36565b610aff565b60405161028c99989796959493929190611af3565b60405180910390f35b3480156102a157600080fd5b506102bc60048036038101906102b791906118ee565b610cf2565b005b3480156102ca57600080fd5b506102e560048036038101906102e09190611bba565b610e3d565b6040516102f2919061199d565b60405180910390f35b61031560048036038101906103109190611be7565b610f05565b005b34801561032357600080fd5b5061033e600480360381019061033991906118ee565b61123d565b60405161035399989796959493929190611af3565b60405180910390f35b34801561036857600080fd5b50610383600480360381019061037e9190611c3a565b61143d565b005b6000732748a42abd328835dfda748bdd1d77ce3c3312ee600160006101000a81548173ffffffffffffffffffffffffffffffffffffffff021916908373ffffffffffffffffffffffffffffffffffffffff1602179055506000600160009054906101000a900473ffffffffffffffffffffffffffffffffffffffff1673ffffffffffffffffffffffffffffffffffffffff1663feaf968c6040518163ffffffff1660e01b815260040160a060405180830381865afa15801561044b573d6000803e3d6000fd5b505050506040513d601f19601f8201168201806040525081019061046f9190611cea565b5050509150508091505090565b60008282816000806101000a81548173ffffffffffffffffffffffffffffffffffffffff021916908373ffffffffffffffffffffffffffffffffffffffff16021790555060008054906101000a900473ffffffffffffffffffffffffffffffffffffffff1673ffffffffffffffffffffffffffffffffffffffff16636352211e826040518263ffffffff1660e01b8152600401610519919061199d565b602060405180830381865afa158015610536573d6000803e3d6000fd5b505050506040513d601f19601f8201168201806040525081019061055a9190611d7a565b73ffffffffffffffffffffffffffffffffffffffff163373ffffffffffffffffffffffffffffffffffffffff1614610593576000610596565b60015b6105d5576040517f08c379a00000000000000000000000000000000000000000000000000000000081526004016105cc90611df3565b60405180910390fd5b60006105df610385565b905067016345785d8a000081121561062c576040517f08c379a000000000000000000000000000000000000000000000000000000000815260040161062390611e5f565b60405180910390fd5b60011515600560008873ffffffffffffffffffffffffffffffffffffffff1673ffffffffffffffffffffffffffffffffffffffff168152602001908152602001600020600087815260200190815260200160002060000160009054906101000a900460ff1615151480156106f3575042600560008873ffffffffffffffffffffffffffffffffffffffff1673ffffffffffffffffffffffffffffffffffffffff16815260200190815260200160002060008781526020019081526020016000206003015411155b156107e7576000600560008873ffffffffffffffffffffffffffffffffffffffff1673ffffffffffffffffffffffffffffffffffffffff168152602001908152602001600020600087815260200190815260200160002060000160006101000a81548160ff021916908315150217905550600060046000600560008a73ffffffffffffffffffffffffffffffffffffffff1673ffffffffffffffffffffffffffffffffffffffff168152602001908152602001600020600089815260200190815260200160002060010154815260200190815260200160002060000160006101000a81548160ff0219169083151502179055505b600560008773ffffffffffffffffffffffffffffffffffffffff1673ffffffffffffffffffffffffffffffffffffffff168152602001908152602001600020600086815260200190815260200160002060000160009054906101000a900460ff1615610888576040517f08c379a000000000000000000000000000000000000000000000000000000000815260040161087f90611ecb565b60405180910390fd5b6001935050505092915050565b6000826000806101000a81548173ffffffffffffffffffffffffffffffffffffffff021916908373ffffffffffffffffffffffffffffffffffffffff16021790555060008060009054906101000a900473ffffffffffffffffffffffffffffffffffffffff1673ffffffffffffffffffffffffffffffffffffffff16636352211e846040518263ffffffff1660e01b8152600401610933919061199d565b602060405180830381865afa158015610950573d6000803e3d6000fd5b505050506040513d601f19601f820116820180604052508101906109749190611d7a565b90508091505092915050565b60065481565b61098e6114c0565b610998600061153e565b565b6109a26114c0565b600073ffffffffffffffffffffffffffffffffffffffff168273ffffffffffffffffffffffffffffffffffffffff16141580156109df5750600081115b610a1e576040517f08c379a0000000000000000000000000000000000000000000000000000000008152600401610a1590611f37565b60405180910390fd5b60008273ffffffffffffffffffffffffffffffffffffffff1682604051610a4490611f88565b60006040518083038185875af1925050503d8060008114610a81576040519150601f19603f3d011682016040523d82523d6000602084013e610a86565b606091505b5050905080610aca576040517f08c379a0000000000000000000000000000000000000000000000000000000008152600401610ac190611fe9565b60405180910390fd5b505050565b6000600260009054906101000a900473ffffffffffffffffffffffffffffffffffffffff16905090565b60075481565b60046020528060005260406000206000915090508060000160009054906101000a900460ff1690806001015490806002015490806003015490806004015490806005015490806006018054610b5390612038565b80601f0160208091040260200160405190810160405280929190818152602001828054610b7f90612038565b8015610bcc5780601f10610ba157610100808354040283529160200191610bcc565b820191906000526020600020905b815481529060010190602001808311610baf57829003601f168201915b505050505090806007018054610be190612038565b80601f0160208091040260200160405190810160405280929190818152602001828054610c0d90612038565b8015610c5a5780601f10610c2f57610100808354040283529160200191610c5a565b820191906000526020600020905b815481529060010190602001808311610c3d57829003601f168201915b505050505090806008018054610c6f90612038565b80601f0160208091040260200160405190810160405280929190818152602001828054610c9b90612038565b8015610ce85780601f10610cbd57610100808354040283529160200191610ce8565b820191906000526020600020905b815481529060010190602001808311610ccb57829003601f168201915b5050505050905089565b6000600560008473ffffffffffffffffffffffffffffffffffffffff1673ffffffffffffffffffffffffffffffffffffffff168152602001908152602001600020600083815260200190815260200160002060000160006101000a81548160ff021916908315150217905550600060046000600560008673ffffffffffffffffffffffffffffffffffffffff1673ffffffffffffffffffffffffffffffffffffffff168152602001908152602001600020600085815260200190815260200160002060010154815260200190815260200160002060000160006101000a81548160ff0219169083151502179055506000600560008473ffffffffffffffffffffffffffffffffffffffff1673ffffffffffffffffffffffffffffffffffffffff1681526020019081526020016000206000838152602001908152602001600020600301819055505050565b600080610e48610385565b90506000806002811115610e5f57610e5e612069565b5b846002811115610e7257610e71612069565b5b03610e8b57600a82610e8491906120f6565b9050610ef4565b60016002811115610e9f57610e9e612069565b5b846002811115610eb257610eb1612069565b5b03610ed757600a600283610ec69190612160565b610ed091906120f6565b9050610ef3565b600a600383610ee69190612160565b610ef091906120f6565b90505b5b806007819055508092505050919050565b6000610f11848461047c565b905080610f53576040517f08c379a0000000000000000000000000000000000000000000000000000000008152600401610f4a90612224565b60405180910390fd5b6000610f5e83611604565b9050600060046000600654815260200190815260200160002090506000610f8485610e3d565b905080341015610fc9576040517f08c379a0000000000000000000000000000000000000000000000000000000008152600401610fc090612290565b60405180910390fd5b60065482600101819055504282600201819055508242610fe991906122b0565b8260030181905550610ff9610385565b826005018190555034826004018190555061101387611687565b82600601908161102391906124bf565b5061102d87611704565b82600701908161103d91906124bf565b506110488787611781565b82600801908161105891906124bf565b5060018260000160006101000a81548160ff02191690831515021790555081600560008973ffffffffffffffffffffffffffffffffffffffff1673ffffffffffffffffffffffffffffffffffffffff16815260200190815260200160002060008881526020019081526020016000206000820160009054906101000a900460ff168160000160006101000a81548160ff02191690831515021790555060018201548160010155600282015481600201556003820154816003015560048201548160040155600582015481600501556006820181600601908161113a91906125a7565b506007820181600701908161114f91906125a7565b506008820181600801908161116491906125a7565b50905050600360009054906101000a900473ffffffffffffffffffffffffffffffffffffffff1673ffffffffffffffffffffffffffffffffffffffff166359cca10f33846001015485600201548660030154876004015488600601896007018a6008016040518963ffffffff1660e01b81526004016111ea989796959493929190612713565b600060405180830381600087803b15801561120457600080fd5b505af1158015611218573d6000803e3d6000fd5b505050506006600081548092919061122f906127a6565b919050555050505050505050565b6005602052816000526040600020602052806000526040600020600091509150508060000160009054906101000a900460ff169080600101549080600201549080600301549080600401549080600501549080600601805461129e90612038565b80601f01602080910402602001604051908101604052809291908181526020018280546112ca90612038565b80156113175780601f106112ec57610100808354040283529160200191611317565b820191906000526020600020905b8154815290600101906020018083116112fa57829003601f168201915b50505050509080600701805461132c90612038565b80601f016020809104026020016040519081016040528092919081815260200182805461135890612038565b80156113a55780601f1061137a576101008083540402835291602001916113a5565b820191906000526020600020905b81548152906001019060200180831161138857829003601f168201915b5050505050908060080180546113ba90612038565b80601f01602080910402602001604051908101604052809291908181526020018280546113e690612038565b80156114335780601f1061140857610100808354040283529160200191611433565b820191906000526020600020905b81548152906001019060200180831161141657829003601f168201915b5050505050905089565b6114456114c0565b600073ffffffffffffffffffffffffffffffffffffffff168173ffffffffffffffffffffffffffffffffffffffff16036114b4576040517f08c379a00000000000000000000000000000000000000000000000000000000081526004016114ab90612860565b60405180910390fd5b6114bd8161153e565b50565b6114c861180a565b73ffffffffffffffffffffffffffffffffffffffff166114e6610acf565b73ffffffffffffffffffffffffffffffffffffffff161461153c576040517f08c379a0000000000000000000000000000000000000000000000000000000008152600401611533906128cc565b60405180910390fd5b565b6000600260009054906101000a900473ffffffffffffffffffffffffffffffffffffffff16905081600260006101000a81548173ffffffffffffffffffffffffffffffffffffffff021916908373ffffffffffffffffffffffffffffffffffffffff1602179055508173ffffffffffffffffffffffffffffffffffffffff168173ffffffffffffffffffffffffffffffffffffffff167f8be0079c531659141344cd1fd0a4f28419497f9722a3daafe3b4186f6b6457e060405160405180910390a35050565b6000806000600281111561161b5761161a612069565b5b83600281111561162e5761162d612069565b5b0361163e5762794a00905061167e565b6001600281111561165257611651612069565b5b83600281111561166557611664612069565b5b036116755762eff100905061167d565b6301e2850090505b5b80915050919050565b60608173ffffffffffffffffffffffffffffffffffffffff166306fdde036040518163ffffffff1660e01b8152600401600060405180830381865afa1580156116d4573d6000803e3d6000fd5b505050506040513d6000823e3d601f19601f820116820180604052508101906116fd91906129e3565b9050919050565b60608173ffffffffffffffffffffffffffffffffffffffff166395d89b416040518163ffffffff1660e01b8152600401600060405180830381865afa158015611751573d6000803e3d6000fd5b505050506040513d6000823e3d601f19601f8201168201806040525081019061177a91906129e3565b9050919050565b60608273ffffffffffffffffffffffffffffffffffffffff1663c87b56dd836040518263ffffffff1660e01b81526004016117bc919061199d565b600060405180830381865afa1580156117d9573d6000803e3d6000fd5b505050506040513d6000823e3d601f19601f8201168201806040525081019061180291906129e3565b905092915050565b600033905090565b6000819050919050565b61182581611812565b82525050565b6000602082019050611840600083018461181c565b92915050565b6000604051905090565b600080fd5b600080fd5b600073ffffffffffffffffffffffffffffffffffffffff82169050919050565b60006118858261185a565b9050919050565b6118958161187a565b81146118a057600080fd5b50565b6000813590506118b28161188c565b92915050565b6000819050919050565b6118cb816118b8565b81146118d657600080fd5b50565b6000813590506118e8816118c2565b92915050565b6000806040838503121561190557611904611850565b5b6000611913858286016118a3565b9250506020611924858286016118d9565b9150509250929050565b60008115159050919050565b6119438161192e565b82525050565b600060208201905061195e600083018461193a565b92915050565b61196d8161187a565b82525050565b60006020820190506119886000830184611964565b92915050565b611997816118b8565b82525050565b60006020820190506119b2600083018461198e565b92915050565b60006119c38261185a565b9050919050565b6119d3816119b8565b81146119de57600080fd5b50565b6000813590506119f0816119ca565b92915050565b60008060408385031215611a0d57611a0c611850565b5b6000611a1b858286016119e1565b9250506020611a2c858286016118d9565b9150509250929050565b600060208284031215611a4c57611a4b611850565b5b6000611a5a848285016118d9565b91505092915050565b600081519050919050565b600082825260208201905092915050565b60005b83811015611a9d578082015181840152602081019050611a82565b60008484015250505050565b6000601f19601f8301169050919050565b6000611ac582611a63565b611acf8185611a6e565b9350611adf818560208601611a7f565b611ae881611aa9565b840191505092915050565b600061012082019050611b09600083018c61193a565b611b16602083018b61198e565b611b23604083018a61198e565b611b30606083018961198e565b611b3d608083018861198e565b611b4a60a083018761181c565b81810360c0830152611b5c8186611aba565b905081810360e0830152611b708185611aba565b9050818103610100830152611b858184611aba565b90509a9950505050505050505050565b60038110611ba257600080fd5b50565b600081359050611bb481611b95565b92915050565b600060208284031215611bd057611bcf611850565b5b6000611bde84828501611ba5565b91505092915050565b600080600060608486031215611c0057611bff611850565b5b6000611c0e868287016118a3565b9350506020611c1f868287016118d9565b9250506040611c3086828701611ba5565b9150509250925092565b600060208284031215611c5057611c4f611850565b5b6000611c5e848285016118a3565b91505092915050565b600069ffffffffffffffffffff82169050919050565b611c8681611c67565b8114611c9157600080fd5b50565b600081519050611ca381611c7d565b92915050565b611cb281611812565b8114611cbd57600080fd5b50565b600081519050611ccf81611ca9565b92915050565b600081519050611ce4816118c2565b92915050565b600080600080600060a08688031215611d0657611d05611850565b5b6000611d1488828901611c94565b9550506020611d2588828901611cc0565b9450506040611d3688828901611cd5565b9350506060611d4788828901611cd5565b9250506080611d5888828901611c94565b9150509295509295909350565b600081519050611d748161188c565b92915050565b600060208284031215611d9057611d8f611850565b5b6000611d9e84828501611d65565b91505092915050565b7f4e4f54204e4654204f574e455200000000000000000000000000000000000000600082015250565b6000611ddd600d83611a6e565b9150611de882611da7565b602082019050919050565b60006020820190508181036000830152611e0c81611dd0565b9050919050565b7f464c4f4f5220505249434520544f4f204c4f5700000000000000000000000000600082015250565b6000611e49601383611a6e565b9150611e5482611e13565b602082019050919050565b60006020820190508181036000830152611e7881611e3c565b9050919050565b7f414c524541445920494e53555245440000000000000000000000000000000000600082015250565b6000611eb5600f83611a6e565b9150611ec082611e7f565b602082019050919050565b60006020820190508181036000830152611ee481611ea8565b9050919050565b7f494e56414c494400000000000000000000000000000000000000000000000000600082015250565b6000611f21600783611a6e565b9150611f2c82611eeb565b602082019050919050565b60006020820190508181036000830152611f5081611f14565b9050919050565b600081905092915050565b50565b6000611f72600083611f57565b9150611f7d82611f62565b600082019050919050565b6000611f9382611f65565b9150819050919050565b7f4641494c45440000000000000000000000000000000000000000000000000000600082015250565b6000611fd3600683611a6e565b9150611fde82611f9d565b602082019050919050565b6000602082019050818103600083015261200281611fc6565b9050919050565b7f4e487b7100000000000000000000000000000000000000000000000000000000600052602260045260246000fd5b6000600282049050600182168061205057607f821691505b60208210810361206357612062612009565b5b50919050565b7f4e487b7100000000000000000000000000000000000000000000000000000000600052602160045260246000fd5b7f4e487b7100000000000000000000000000000000000000000000000000000000600052601260045260246000fd5b7f4e487b7100000000000000000000000000000000000000000000000000000000600052601160045260246000fd5b600061210182611812565b915061210c83611812565b92508261211c5761211b612098565b5b600160000383147f800000000000000000000000000000000000000000000000000000000000000083141615612155576121546120c7565b5b828205905092915050565b600061216b82611812565b915061217683611812565b925082820261218481611812565b91507f800000000000000000000000000000000000000000000000000000000000000084146000841216156121bc576121bb6120c7565b5b82820584148315176121d1576121d06120c7565b5b5092915050565b7f4e4f5420454c494749424c450000000000000000000000000000000000000000600082015250565b600061220e600c83611a6e565b9150612219826121d8565b602082019050919050565b6000602082019050818103600083015261223d81612201565b9050919050565b7f50415920434f525245435420414d4f554e540000000000000000000000000000600082015250565b600061227a601283611a6e565b915061228582612244565b602082019050919050565b600060208201905081810360008301526122a98161226d565b9050919050565b60006122bb826118b8565b91506122c6836118b8565b92508282019050808211156122de576122dd6120c7565b5b92915050565b7f4e487b7100000000000000000000000000000000000000000000000000000000600052604160045260246000fd5b60008190508160005260206000209050919050565b60006020601f8301049050919050565b600082821b905092915050565b6000600883026123757fffffffffffffffffffffffffffffffffffffffffffffffffffffffffffffffff82612338565b61237f8683612338565b95508019841693508086168417925050509392505050565b6000819050919050565b60006123bc6123b76123b2846118b8565b612397565b6118b8565b9050919050565b6000819050919050565b6123d6836123a1565b6123ea6123e2826123c3565b848454612345565b825550505050565b600090565b6123ff6123f2565b61240a8184846123cd565b505050565b5b8181101561242e576124236000826123f7565b600181019050612410565b5050565b601f8211156124735761244481612313565b61244d84612328565b8101602085101561245c578190505b61247061246885612328565b83018261240f565b50505b505050565b600082821c905092915050565b600061249660001984600802612478565b1980831691505092915050565b60006124af8383612485565b9150826002028217905092915050565b6124c882611a63565b67ffffffffffffffff8111156124e1576124e06122e4565b5b6124eb8254612038565b6124f6828285612432565b600060209050601f8311600181146125295760008415612517578287015190505b61252185826124a3565b865550612589565b601f19841661253786612313565b60005b8281101561255f5784890151825560018201915060208501945060208101905061253a565b8683101561257c5784890151612578601f891682612485565b8355505b6001600288020188555050505b505050505050565b6000815490506125a081612038565b9050919050565b8181036125b557505061268d565b6125be82612591565b67ffffffffffffffff8111156125d7576125d66122e4565b5b6125e18254612038565b6125ec828285612432565b6000601f83116001811461261b5760008415612609578287015490505b61261385826124a3565b865550612686565b601f19841661262987612313565b965061263486612313565b60005b8281101561265c57848901548255600182019150600185019450602081019050612637565b868310156126795784890154612675601f891682612485565b8355505b6001600288020188555050505b5050505050505b565b6000815461269c81612038565b6126a68186611a6e565b945060018216600081146126c157600181146126d75761270a565b60ff19831686528115156020028601935061270a565b6126e085612313565b60005b83811015612702578154818901526001820191506020810190506126e3565b808801955050505b50505092915050565b600061010082019050612729600083018b611964565b612736602083018a61198e565b612743604083018961198e565b612750606083018861198e565b61275d608083018761198e565b81810360a083015261276f818661268f565b905081810360c0830152612783818561268f565b905081810360e0830152612797818461268f565b90509998505050505050505050565b60006127b1826118b8565b91507fffffffffffffffffffffffffffffffffffffffffffffffffffffffffffffffff82036127e3576127e26120c7565b5b600182019050919050565b7f4f776e61626c653a206e6577206f776e657220697320746865207a65726f206160008201527f6464726573730000000000000000000000000000000000000000000000000000602082015250565b600061284a602683611a6e565b9150612855826127ee565b604082019050919050565b600060208201905081810360008301526128798161283d565b9050919050565b7f4f776e61626c653a2063616c6c6572206973206e6f7420746865206f776e6572600082015250565b60006128b6602083611a6e565b91506128c182612880565b602082019050919050565b600060208201905081810360008301526128e5816128a9565b9050919050565b600080fd5b600080fd5b6128ff82611aa9565b810181811067ffffffffffffffff8211171561291e5761291d6122e4565b5b80604052505050565b6000612931611846565b905061293d82826128f6565b919050565b600067ffffffffffffffff82111561295d5761295c6122e4565b5b61296682611aa9565b9050602081019050919050565b600061298661298184612942565b612927565b9050828152602081018484840111156129a2576129a16128f1565b5b6129ad848285611a7f565b509392505050565b600082601f8301126129ca576129c96128ec565b5b81516129da848260208601612973565b91505092915050565b6000602082840312156129f9576129f8611850565b5b600082015167ffffffffffffffff811115612a1757612a16611855565b5b612a23848285016129b5565b9150509291505056fea2646970667358221220cb67b4ae7aa2c0cb3a9da10c5c5722aefddff0b6d8a68fdc37a54cf3d0e79cdc64736f6c63430008110033",
  "linkReferences": {},
  "deployedLinkReferences": {}
}